:100000000C94AC030C94F3030C94F3030C94F303DF
:100010000C94F3030C94F3030C94F3030C94F30388
:100020000C94F3030C94F3030C94941E0C94671F2C
:100030000C94A1150C94F3030C94F3030C94F303A8
:100040000C94F3030C94F3030C94F3030C94F30358
:100050000C94F3030C9402160C94F3030C94F30326
:100060000C94F3030C94F3030C94F3030C94F30338
:100070000C94F3030C94F3030C94F3030C94F30328
:100080000C94F3030C94F3030C94F3030C94F30318
:100090000C94F3030C94F3030C94F3030C94F30308
:1000A0000C94F3030C94F3030C94F30314041A005C
:1000B0000800150017001C0018000C0012001300A7
:1000C00004001600070009000A000B000D000E00D6
:1000D0000F002D001D001B6806001900054211418C
:1000E000100036003700E50000000000E000E700E7
:1000F0002C0028002A000000000000001E001F0045
:1001000020002100220023002400250026002700D3
:100110001E0234022002210222022E022D0025029C
:1001200038002A00240234002602270201000100C0
:100130002E0036023702E10000000000E000E70078
:100140002C002800E2000000000000003A003B0004
:100150003C003D003E003F004000410042004300A3
:100160001F022302330033023100500051005200BD
:100170004F000070350238022D02310201000100EB
:100180002E002F003000E100000000002B002900AD
:100190002C002800E2000000000000000100010027
:1001A0000100010001000100010001000100010047
:1001B0000100010001000100010001000100010037
:1001C0000100010001000100010001000100010027
:1001D0000100010001000100000000000100010019
:1001E000010001000100000000000000010001000A
:1001F00001000100010001000100010001000100F7
:1002000001000100010001000100010001000100E6
:1002100001000100010001000100010001000100D6
:1002200001000100010001000000000001000100C8
:1002300001000100010000000000000001000100B9
:1002400001000100010001000100010001000100A6
:100250000100010001000100010001000100010096
:100260000100010001000100010001000100010086
:100270000100010001000100000000000100010078
:100280000100010001000000000000000100010069
:100290000100010001000100010001000100010056
:1002A0000100010001000100010001000100010046
:1002B0000100010001000100010001000100010036
:1002C0000100010001000100000000000100010028
:1002D0000100010001000000000000000100010019
:1002E0000100010001000100010001000100010006
:1002F00001000100010001000100010001000100F6
:1003000001000100010001000100010001000100E5
:1003100001000100010001000000000001000100D7
:1003200001000100010000000000000001000100C8
:1003300001000100010001000100010001000100B5
:1003400001000100010001000100010001000100A5
:100350000100010001000100010001000100010095
:100360000100010001000100000000000100010087
:100370000100010001000000000000000100010078
:100380000100010001000100010001000100010065
:100390000100010001000100010001000100010055
:1003A0000100010001000100010001000100010045
:1003B0000100010001000100000000000100010037
:1003C0000100010001000000000000000100010028
:1003D0000100010001000100010001000100010015
:1003E0000100010001000100010001000100010005
:1003F00001000100010001000100010001000100F5
:1004000001000100010001000000000001000100E6
:1004100001000100010000000000000001000100D7
:1004200001000100010001000100010001000100C4
:1004300001000100010001000100010001000100B4
:1004400001000100010001000100010001000100A4
:100450000100010001000100000000000100010096
:100460000100010001000000000000000100010087
:100470000100010001000100010001000100010074
:100480000100010001000100010001000100010064
:100490000100010001000100010001000100010054
:1004A0000100010001000100000000000100010046
:1004B0000100010001000000000000000100010037
:1004C0000100010001000100010001000100010024
:1004D0000100010001000100010001000100010014
:1004E0000100010001000100010001000100010004
:1004F00001000100010001000000000001000100F6
:1005000001000100010000000000000001000100E6
:1005100001000100010001000100010001000100D3
:1005200001000100010001000100010001000100C3
:1005300001000100010001000100010001000100B3
:1005400001000100010001000000000001000100A5
:100550000100010001000000000000000100010096
:100560000100010001000100010001000100010083
:100570000100010001000100010001000100010073
:100580000100010001000100010001000100010063
:100590000100010001000100000000000100010055
:1005A00001000100010000000000000012036B00C8
:1005B0006500790062006F00610072006400000055
:1005C000160371006D006B006200750069006C001D
:1005D00064006500720000000403090409026D0054
:1005E000040100A0FA09040000010301010009212F
:1005F000110100012240000705810308000A0904D7
:1006000001000103010200092111010001224D0036
:100610000705820308000A09040200010300000024
:100620000921110100012236000705830308000A91
:100630000904030001030000000921110100012247
:100640003900070584032000011201100100000099
:1006500008EDFE606001000102000105010906A12C
:1006600001050719E029E7150025019508750181A5
:100670000205081901290595057501910295017575
:100680000391010507190029F71500250195F87553
:10069000018102C005010980A10185021601002621
:1006A00003001A81002A8300751095018100C0059E
:1006B0000C0901A1018503160100269C021A010004
:1006C0002A9C02751095018100C005010902A10153
:1006D0000901A10005091901290515002501950544
:1006E0007501810295017503810105010930093108
:1006F0001581257F95027508810609381581257FAA
:10070000950175088106050C0A38021581257F952B
:100710000175088106C0C005010906A10105071978
:10072000E029E715002501950875018102950175FD
:1007300008810105081901290595057501910295A2
:1007400001750391010507190029FF150026FF0017
:10075000950675088100C00011241FBECFEFDAE0B6
:10076000DEBFCDBF04B603FE27C080912902909161
:100770002A02A0912B02B0912C028730904BA74007
:10078000B04BD1F41092290210922A0210922B023F
:1007900010922C0214BE84B7877F84BF0FB6F894E2
:1007A000A89580916000886180936000109260003D
:1007B0000FBEE0E0F8E3099511E0A0E0B1E0E8EA5F
:1007C000F5E402C005900D92A633B107D9F722E0F7
:1007D000A6E3B1E001C01D92A932B207E1F70E9481
:1007E000EA1B0C94A6220C94000090E080E008958F
:1007F0000895089581E00895089581E008950C9486
:10080000FA030E94F20D2FEF84E39CE02150804018
:100810009040E1F700C000000C942516EF92FF9283
:100820000F931F93CF93DF938C01FC01E080F18045
:1008300080916A01811140C082818823C1F1C70182
:100840000E947713C82F682FC7010E942013B70199
:100850008C2F0E944605EC01B8010E94FF038823FB
:1008600009F44BC0B801CE010E944F07882309F458
:1008700044C0C531F0E7DF0720F5C23080E7D80774
:1008800008F04DC0C115E0E7DE0791F1C130D04757
:10089000E1F181E08093380180933901C801DF9153
:1008A000CF911F910F91FF90EF900C94FD03C70122
:1008B0000E944E13C82FCBCFC7010E947713B701F8
:1008C000C8CFCC3380E7D80709F49BC0CD33D047DD
:1008D00001F7F8018281882309F4BAC01092390126
:1008E0000E94D115909337018093360180E296C023
:1008F000F801828181110E94010480E0DF91CF9193
:100900001F910F91FF90EF900895F8018281882345
:10091000A1F38091E90181608093E901EECFF801B4
:100920008281882309F4BACF0E943215811102C056
:100930000E9418150E944F1590E090931B0280931F
:100940001A02FE01E350F04780911A028160E23101
:10095000F10538F4E855FD4D0C94562280911A02A9
:10096000826080931A0280911A020E9453150E949D
:10097000F20DC3CF80911A028460F3CF80911A02E6
:100980008860EFCF80911A028061EBCF80911A02CC
:100990008062E7CF80911A028064E3CF80911A02CF
:1009A0008068DFCF80911A028C60DBCF80911A02C1
:1009B0008E7FD7CF80911A028D7FD3CF80911A027C
:1009C0008B7FCFCF80911A02877FCBCF80911A0285
:1009D0008F7EC7CF80911A028F7DC3CF80911A027C
:1009E0008F7BBFCF80911A028F77BBCF80911A0285
:1009F000837FB7CF90911A02892F97FB87F9805890
:100A0000B0CFF8018281882361F0109238010E94F2
:100A1000D115909337018093360182E00E94570BE5
:100A20006CCF8091380181110FC080913601909177
:100A300037010E94DD15883C910530F486E20E9462
:100A40002C0A86E20E94080B82E00E945E0B55CFC2
:100A50008091390181110FC0809136019091370149
:100A60000E94DD15883C910530F487E20E942C0A33
:100A700087E20E94080B80E2E8CF0C949E070C945A
:100A8000A0070C94FC030C9441050895972F70E087
:100A90002AE0929F600D711D1124FB0198E2899F4D
:100AA000E00DF11D1124EE0FFF1FE455FF4F85915E
:100AB00094910895FC01EE0FFF1FE455FA4F8591C4
:100AC000949108950E9446050E94D3069C018115C9
:100AD00040E4940708F097C0211580E3380708F038
:100AE000FAC0203E310508F074C0203C310508F002
:100AF000E5C0283A310588F4253A310508F0E2C00E
:100B00002130310509F477C0C9010497813A910574
:100B100008F471C030E020E06EC0C901885A910924
:100B20004597C0F7283A310509F4FEC0293A310546
:100B300009F4FDC02A3A310509F4FCC02B3A31050D
:100B400009F4FBC02C3A310509F4FAC02B3B3105FE
:100B500009F4F9C02C3B310509F4F8C02D3A3105F0
:100B600009F4F7C0203B310509F4F6C02E3A3105EF
:100B700009F4F5C02F3A310509F4F4C0213B3105E1
:100B800009F4F3C0223B310509F4F2C0233B3105DF
:100B900009F4F1C0243B310509F4F0C0253B3105CF
:100BA00009F4EFC0263B310509F4EEC0273B3105BF
:100BB00009F4EDC0283B310509F4ECC0293B3105AF
:100BC00009F4EBC02A3B310509F4EAC020E034E423
:100BD00012C0211590E2390780F42F3F310509F04A
:100BE00050F4283E310538F0C901805F9109306525
:100BF000409708F08FCFC9010895C9019F700E94E6
:100C00005A059C01F8CF8115944508F041C0211583
:100C100083E5380708F06AC0211592E5390738F5F1
:100C2000211541E5340708F05CC0211580E538073F
:100C300008F454C0C90134E0969587953A95E1F7D8
:100C40008370422F46954695437090E2499FA001DC
:100C50001124582B822F837021E030E002C0220F34
:100C6000331F8A95E2F7242B352B3C68C4CFC9018A
:100C70008370992741E050E002C0440F551F8A95C8
:100C8000E2F72695269580E2289F90011124EBCF6C
:100C9000211596E5390748F4922F88272115354507
:100CA000C8F59C01246F306AA6CFC90190563F70E9
:100CB0008115904108F02ECF30629DCFC901805C34
:100CC00091099DCF253A310549F1263A310549F57B
:100CD00022E830E490CF3327306C8DCF3F70306AFC
:100CE0008ACF322F2227216F306A85CFC9018370C6
:100CF000992741E050E002C0440F551F8A95E2F762
:100D00002695269580E2289F90011124242B352BCF
:100D10003A6871CF88279F719C01CECF21E830E4DB
:100D20006ACF23E830E467CF22EE34E464CF29EEC3
:100D300034E461CF2AEE34E45ECF25EB34E45BCFBC
:100D400026EB34E458CF23EB34E455CF24EB34E4E2
:100D500052CF27EB34E44FCF2CEC34E44CCF2DECC6
:100D600034E449CF23E835E446CF2AE835E443CFDD
:100D700022E935E440CF24E935E43DCF21E236E4F1
:100D80003ACF23E236E437CF24E236E434CF25E20B
:100D900036E431CF26E236E42ECF27E236E42BCFFD
:100DA0002AE236E428CF803E910581F1C8F48133F0
:100DB000910509F462C048F48932910509F456C0DE
:100DC0008A32910509F460C0089589339105B9F01C
:100DD00082389105A1F08533910509F440C008954A
:100DE000863E910561F138F4823E9105B1F0833E73
:100DF0009105E1F00895873E910551F10895209104
:100E00001A022370D9F080EE90E0089520911A0222
:100E100020FF14C089E390E0089520911A0222FF78
:100E20000DC024FD09C083EE90E0089520911A02C0
:100E300022FD31C024FF02C090E080E0089520919F
:100E40001A0223FFFBCF24FDF7CF87EE90E0089531
:100E500020911A0223FFEECF86EE90E008952091B4
:100E60001A0225FFEBCF89E290E0089520911A0243
:100E700025FFE4CF85E390E0089520911A0226FF34
:100E8000DDCF8AE290E0089520911A0226FFD6CFA6
:100E900081E390E0089582EE90E0089508950F9325
:100EA0001F93CF938C01FB018281811106C0C1E0A9
:100EB0008C2FCF911F910F910895C0914701C111BF
:100EC00025C00531104799F70E944E0781E08093B5
:100ED00047010E94D11590934601809345011092DD
:100EE0003A0110923C0110923B0110923E01109287
:100EF0003D011092400110923F0110924201109268
:100F000041011092440110924301D2CF80914501DA
:100F1000909146010E94DD15883C910540F6809134
:100F20003A01E82FF0E0EE0FFF1FE55CFE4F118362
:100F300000838F5F80933A01C0E0BACF0C94F8032E
:100F40000C94F903CF93DF9385B7806885BF85B78D
:100F5000806885BFA3E1B1E04DE151E0C1E0D0E0A0
:100F60008D91E82FE295EF70F0E061A18F709E0106
:100F700001C0220F8A95EAF7922F9095962391A3AC
:100F800082A1822B82A34A175B0751F7ADE1B1E042
:100F900041E251E0C1E0D0E08D91E82FE295EF70A1
:100FA000F0E061A18F709E0101C0220F8A95EAF7DF
:100FB000922F9095962391A382A1822B82A34A1708
:100FC0005B0751F7109251011092500110924901A4
:100FD00010924801109253011092520110924B014D
:100FE00010924A01109255011092540110924D0135
:100FF00010924C01109257011092560110924F011D
:1010000010924E01DF91CF910C943D053F924F928B
:101010005F926F927F928F929F92AF92BF92CF9288
:10102000DF92EF92FF920F931F93CF93DF9300D045
:1010300000D0CDB7DEB703E111E01A821982EE24A9
:10104000E394F12C90E5692E91E0792E33243394CA
:10105000D8018D918D01E82FE295EF70F0E091A11C
:101060008F70570101C0AA0C8A95EAF7892F8A2947
:1010700081A382A15A2C5094852182A3B0EABA950B
:10108000F1F7A701098002C0440F551F0A94E2F747
:101090004A018094909488E491E09C838B836DE175
:1010A00071E0412CAB81BC818D919D91BC83AB8360
:1010B000DB01DD90BD012D2D22952F7030E0D9018F
:1010C00090962C9130E0BD2DBF70DB2ED90102C06F
:1010D000B595A795DA94E2F72B813C81225031092E
:1010E000A0FD72C06C01C42AD52AD9011196DC92E8
:1010F000CE922D913C918217930711F04424439492
:101100008B819C816816790669F681A1582251A2CB
:1011100082A1A82AA2A2442041F0309258010E9444
:10112000D11590935A0180935901A981BA811196E2
:10113000BA83A9831A9709F08BCF8091580188232D
:1011400051F18091590190915A010E94DD15069745
:1011500010F1809148019091490190935101809341
:10116000500180914A0190914B01909353018093DB
:10117000520180914C0190914D01909355018093C3
:10118000540180914E0190914F01909357018093AB
:101190005601109258010E943F0581E00F900F9078
:1011A0000F900F90DF91CF911F910F91FF90EF90D3
:1011B000DF90CF90BF90AF909F908F907F906F9077
:1011C0005F904F903F9008956C01C820D9208DCF3B
:1011D000E82FF0E0EE0FFF1FE05BFE4F8081918172
:1011E000089508959093600180935F010895E091C0
:1011F0005F01F0916001309721F00190F081E02DC6
:10120000099480E00895E0915F01F09160013097CA
:1012100021F00280F381E02D09940895E0915F01AF
:10122000F0916001309721F00480F581E02D099460
:10123000089520915D0130915E012817390771F002
:1012400090935E0180935D01E0915F01F0916001F8
:10125000309721F00680F781E02D099408952091C0
:101260005B0130915C012817390771F090935C01A4
:1012700080935B01E0915F01F0916001309721F074
:101280000084F185E02D0994089508950C94450992
:101290000E94C8150E94A2070C9492165F926F924A
:1012A0007F928F929F92AF92BF92CF92DF92EF92F6
:1012B000FF920F931F93CF93DF9300D000D00F9234
:1012C000CDB7DEB70E94060892E6A92E91E0B92EAE
:1012D00010E000E088248394912C502E802F0E94EF
:1012E000E8087C01F501C190D1905F01C816D906CC
:1012F00009F45DC08091E90181FD0E94F10890E050
:1013000080E0CE24DF243401082E02C0660C771C56
:101310000A94E2F7960126213721232B09F442C0D3
:1013200089835A82E620F72081E0EF2809F480E0E3
:101330008B830E94D1158160782F9D838C83498196
:101340005A816B818D810E94030A000F111FF801E1
:10135000EE59FE4F808191816826792671826082E4
:101360000E943F190E94F708909161018917B1F11D
:101370000E94F708809361010F900F900F900F90DB
:101380000F90DF91CF911F910F91FF90EF90DF9021
:10139000CF90BF90AF909F908F907F906F905F9015
:1013A0000C94430501968A30910509F0ACCF0F5F8C
:1013B0001F4F0430110509F090CF8FEF89838A8386
:1013C0001B820E94D1158160782F9D838C83498177
:1013D0005A816B818D810E94030AC2CF0F900F90BA
:1013E0000F900F900F90DF91CF911F910F91FF9071
:1013F000EF90DF90CF90BF90AF909F908F907F90B5
:101400006F905F900895CF93DF93CDB7DEB72B97A2
:101410000FB6F894DEBF0FBECDBF4F8358876987E4
:101420007A878B871E8285E0FE013796DE01119652
:1014300001900D928A95E1F749815A816B817C81F7
:101440008D819E812B960FB6F894DEBF0FBECDBF67
:10145000DF91CF910C947A10882309F4D8C0823898
:1014600071F40E94F70881FDD2C089E30E941F1425
:101470000E94E91489E30E945C140C94E9148338F7
:1014800059F40E94F70880FDC2C083E50E941F1432
:101490000E94E91483E5EFCF843859F40E94F708DD
:1014A00082FDB5C087E40E941F140E94E91487E4FE
:1014B000E2CF9CEF980F913A18F40E941F14DDCFF1
:1014C00090E2980F983050F4877091E001C0990F26
:1014D0008A95EAF7892F0E94A014CFCF9BE5980F39
:1014E000933070F4853A31F0863A39F083E890E031
:1014F0000C94190981E890E0FBCF82E890E0F8CFE6
:1015000098E5980F953108F082C0883A09F440C0F8
:10151000893A09F440C08A3A09F440C08B3A09F488
:1015200040C08C3A09F440C08B3B09F440C08C3B6E
:1015300009F440C08D3A09F440C0803B09F440C032
:101540008E3A09F440C08F3A09F440C0813B09F457
:1015500040C0823B09F440C0833B09F440C0843B57
:1015600009F440C0853B09F440C0863B09F440C003
:10157000873B09F440C0883B09F440C0893B09F42B
:1015800040C08A3B09F440C090E080E00C942F09F1
:1015900082EE90E0FBCF89EE90E0F8CF8AEE90E00B
:1015A000F5CF85EB90E0F2CF86EB90E0EFCF83EBC9
:1015B00090E0ECCF84EB90E0E9CF87EB90E0E6CFD2
:1015C0008CEC90E0E3CF8DEC90E0E0CF83E891E00D
:1015D000DDCF8AE891E0DACF82E991E0D7CF84E9E4
:1015E00091E0D4CF81E292E0D1CF83E292E0CECFFE
:1015F00084E292E0CBCF85E292E0C8CF86E292E02F
:10160000C5CF87E292E0C2CF8AE292E0BFCF0895D1
:10161000882309F44BC0823871F40E94F70881FFD7
:1016200045C089E30E941F140E94E91489E30E94C7
:101630005C140C94E914833859F40E94F70880FF75
:1016400035C083E50E941F140E94E91483E5EFCFA3
:10165000843859F40E94F70882FF28C087E40E946A
:101660001F140E94E91487E4E2CF9CEF980F913A8F
:10167000F0F290E2980F983050F4877091E001C03A
:10168000990F8A95EAF7892F0E94A614D2CF9BE57D
:10169000980F933020F490E080E00C941909885A58
:1016A000853120F490E080E00C942F090895882380
:1016B00021F00E94A0140C94E9140895882321F0CD
:1016C0000E94A6140C94E91408958F929F92AF92F1
:1016D000BF92DF92EF92FF920F931F93CF93DF930E
:1016E00000D000D00F92CDB7DEB77C016D83798337
:1016F000FC01058102950F70128111110E94BF1427
:101700000E941814D82E882371F01123A1F08D8126
:10171000805E883080F082E00E9402140E941814DB
:1017200091E0D82ED926E981E295EF70F0E0E654F9
:10173000FD4D0C945622D12CF6CF09810F70F98102
:10174000F07F11F00295007F1123B1F0002361F0CA
:101750008D81805E883018F02D81211109C0802F85
:101760000E94A0140E94E9148D810E942C0A15C0C9
:10177000802F0E94B114F6CF8D810E94080B0023A8
:1017800061F08D81805E883018F03D81311129C073
:10179000802F0E94A6140E94E914DD2009F4D3C111
:1017A0000E94F51380FDCFC1F70112820E94EF1352
:1017B0000E943812C7010E94B40D0E94EF130F90CF
:1017C0000F900F900F900F90DF91CF911F910F917D
:1017D000FF90EF90DF90BF90AF909F908F900C9410
:1017E0005A12802F0E94B714D6CF49814F70B42E61
:1017F0005981507F503219F0B29480EFB8228D8118
:10180000882369F0813029F1112369F1002359F00F
:10181000F701858180FFA8CF8F70858304C01123D5
:1018200061F0011104C08B2D0E94570BB6CF8B2D98
:101830000130D1F70E94D314B0CF011106C00E942D
:10184000D6148B2D0E945E0BA8CF013009F4A5CFD2
:10185000F6CF112321F0063008F09FCFE4CF0530FA
:1018600008F09BCFEECF002361F38D810E94080B1F
:1018700094CF898186958695837069F0813009F0CF
:101880008CCF8D8199819370111102C090E080E01E
:101890000E942F0982CF8D8199819370111102C00E
:1018A00090E080E00E94190978CF8D81112329F002
:1018B0000E944D180E94341970CF0E94B518FACFBB
:1018C0008981837009F05FC0111167CF2D81229546
:1018D00026952770220F220F8D818F7090E0B0E047
:1018E000A0E04C015D01022E04C0880C991CAA1CCA
:1018F000BB1C0A94D2F7FD8160E070E0CB01F4FFDD
:101900000FC06FE070E080E090E004C0660F771FCA
:10191000881F991F2A95D2F76095709580959095AC
:1019200029812695269523702D832230B1F023300E
:1019300019F19B01AC01282939294A295B292983FE
:101940003A834B835C833D8169817A818B819C8161
:101950003130B1F00E94C51120CF9B01AC01282984
:1019600039294A295B2929833A834B835C83CA013D
:10197000B9010E94EF1111CF0E94C511C501B40138
:101980000E949B110ACF8695112311F089818170E5
:10199000882309F402CF2D81229526952770220FE6
:1019A000220F8D818F7090E0B0E0A0E04C015D01CE
:1019B000022E04C0880C991CAA1CBB1C0A94D2F7E6
:1019C0003D8160E070E0CB0134FF0FC06FE070E05C
:1019D00080E090E004C0660F771F881F991F2A954A
:1019E000D2F760957095809590954981469546957A
:1019F00043704D834230B1F0433019F19B01AC018B
:101A0000282939294A295B2929833A834B835C8316
:101A10003D8169817A818B819C813130B1F00E9456
:101A2000CB12BBCE9B01AC01282939294A295B295D
:101A300029833A834B835C83CA01B9010E94F51262
:101A4000ACCE0E94CB12C501B4010E94A112A5CE5A
:101A50003D81323F09F447C080F4303F79F1313F96
:101A6000D9F1832F805E8031D0F0112309F456C064
:101A700001117ACE89818F7133C04D81433FD1F1FD
:101A8000443F99F7112309F43FC089818F718983FD
:101A90000E94381263E089810E94F9137ECE5D8135
:101AA0005F705D8389818F71112321F00E9438124C
:101AB0008D81BACE0E945A128D81C4CE112341F07D
:101AC000053008F06ACE89818F710E947F1265CE41
:101AD000063008F062CEF7CF89818F71112339F07B
:101AE0000E9438125ACE89818F711123C9F30E9446
:101AF0005A1253CE112329F089818F710E9423122B
:101B00004CCE0E94191249CE81E00E94021402308C
:101B100008F443CE82E00E9402143FCE0111A5CE0C
:101B200089818F71E4CF49814F706D81C7010E9417
:101B3000F5030E94141131CE49814F706D81C701A8
:101B40000E9445052ACE0F900F900F900F900F9096
:101B5000DF91CF911F910F91FF90EF90DF90BF9099
:101B6000AF909F908F9008950F931F93CF93DF9323
:101B7000EC018B819C81892B29F0888199818923B3
:101B80008F3F29F4DF91CF911F910F910895CE01DE
:101B90000E940E048823B1F3688179818A810E94B2
:101BA000C5138C010E941F130E949011B801CE0131
:101BB000DF91CF911F910F910C94650B0E94BF1480
:101BC0000E94D0140E9492140E94E9140E94251AC7
:101BD0000E94341990E080E00E94190990E080E0B2
:101BE0000C942F090E94AE140C94DE0D0E94B913C0
:101BF000282F892F82958F70903C80F48A30B0F422
:101C0000843020F4823090F480E008958630E1F74B
:101C100081E0203E88F0213FB9F70EC08C3011F0F2
:101C20008F3091F793FB882780F9089581E0203F5A
:101C300039F018F4203E40F70895243F29F7FCCFEF
:101C40000895CF93DF9300D000D00F92CDB7DEB7C9
:101C50000F900F900F900F900F90DF91CF910895FC
:101C6000CF93DF9300D000D000D0CDB7DEB726965B
:101C70000FB6F894DEBF0FBECDBFDF91CF910895B0
:101C80001F93CF93DF93E0916B0116E080916C017D
:101C90008E1304C0DF91CF911F910895CE2FD0E015
:101CA0001E9FF0011124E359FE4F40815181628152
:101CB0007381848195810E94300EFE013196E77018
:101CC000E5CF40919D0150919E0160919F017091DF
:101CD000A0018091A1019091A2010C94300E1F935C
:101CE000CF93DF938091A201807FC1F480919F0107
:101CF0008823A1F080916B01C0916C0160919D01DE
:101D000070919E014091A0015091A101D62FD7233F
:101D1000DA01A095B09516E0C81304C0DF91CF9109
:101D20001F91089590E04115510511F0DF3F31F406
:101D300001968770F1CF2A0F3B1F17C0189FF00143
:101D4000199FF00D1124E359FE4F21812713F0CF85
:101D500020812613EDCF22812111EACF2381348106
:101D60002417350740F3241B350B283C310500F7B9
:101D70002091A2012F7020612093A20126E0289FCC
:101D8000F001299FF00D1124EE58FE4F80818F70D5
:101D9000806180838DE991E00E94B40DDF91CF9145
:101DA0001F910C94400E9F92AF92BF92CF92DF9200
:101DB000EF92FF920F931F93CF93DF93CDB7DEB7D0
:101DC0002B970FB6F894DEBF0FBECDBF8C0185E018
:101DD000F801DE01179601900D928A95E1F7D8017E
:101DE0004C9111965C9111971296EC9012978091FC
:101DF000A0019091A101009709F46BC120919D0170
:101E000030919E01632F62236F3F09F462C11396E4
:101E1000CD90DC9090909F01992009F4F8C0C816ED
:101E2000D90608F43FC0F601E81BF90BCF01FF24E7
:101E3000F394883C910508F0F12C8DE9A82E81E0FF
:101E4000B82E8091A201982F907FFF2009F4B7C08F
:101E5000911180C0FE2C35132AC0241328C0E11034
:101E600026C08F7080618093A2010E94610EC5011F
:101E70000E94B40D8091A201D80115968C938F2DEC
:101E80002B960FB6F894DEBF0FBECDBFDF91CF917A
:101E90001F910F91FF90EF90DF90CF90BF90AF9088
:101EA0009F900895809590958C0D9D1DC0CFCD2855
:101EB00029F0842F85238F3F09F019C180E0B82FC6
:101EC000B170DB2EE0916B0120916C0136E080FD5A
:101ED0001CC0EE20A1F28091A20181608093A2013A
:101EE000F12CCDCF8E2F90E03E9FF0011124E359CD
:101EF000FE4F6181651306C06081641303C0628177
:101F00006E11E7CFFC013196E770E213EBCF4F8300
:101F100058878F8198850E94B913292F22952F7099
:101F2000903260F0225F2F70223078F49F7051F071
:101F3000F8019581907F31F4D12C0AC09F7011F087
:101F40008823D1F3805E8830B8F3C8010E94B40DB5
:101F5000FD2C95CF351306C0241304C0D801EE2004
:101F600009F47BC04F8358878F8198850E94F60DB6
:101F7000882309F4B8C0EE2009F4B5C08091A2010D
:101F8000803270F020919D0130919E013A83298327
:101F90001B82DD82CC828E83CE0101960E94B40D1D
:101FA00086E0F801ADE9B1E001900D928A95E1F784
:101FB0000E946F0E0E94610EFF24F39460CF911176
:101FC00013C07C2DDB86CA866E2D8B850E94210E68
:101FD0008DE991E00E94B40D86E0F50111928A9599
:101FE000E9F70E94610E4BCF3513BCCF2413BACF53
:101FF000E110B8CFD80115968C93C8010E94B40D9A
:1020000086E0F50111928A95E9F7F92C38CFC816C8
:10201000D90688F1B601681B790BCB01F12C883CFD
:10202000910508F047C0FE2CEE2009F45CC0351382
:1020300030C024132EC08091A20180FD21C0982FB2
:10204000907FF1F0D80115968C931597903F39F059
:10205000982F907F905F8F70892B15968C93C80175
:102060000E94B40D86E0F801ADE9B1E001900D9257
:102070008A95E1F7B6CF809590958C0D9D1DCECFBA
:1020800086E0F801ADE9B1E001900D928A95E1F7A3
:10209000F6CE4F8358878F8198850E94F60D811167
:1020A0007FCF8091A20181608093A201C8010E942C
:1020B000B40DE5CE7C2DDB86CA866E2D8B850E9405
:1020C000210E86E0EDE9F1E0DF011D928A95E9F746
:1020D00088CFEE2041F04F8358878F8198850E94EA
:1020E000F60D81115DCFC8010E94B40D65CF81E06E
:1020F0008E25E5CE1F93CF93DF93CDB7DEB72C9718
:102100000FB6F894DEBF0FBECDBF4F8358876987E7
:102110007A878B879C87CE0107960E94D30E8823EF
:1021200069F08A859B85892B39F04F815885842FEA
:1021300085238F3F09F071C016E05FC086E0FE0185
:102140003796DE01119601900D928A95E1F78A8506
:102150009B85892B89F388859F8189238F3F61F334
:1021600020916C0130E0C901019687709927409158
:102170006B014817190671F40E94F20D10926C0160
:1021800010926B0186E0EDE9F1E0DF011D928A9586
:10219000E9F7D2CF96E0929FD001939FB00D112422
:1021A000A359BE4FFE01319601900D929A95E1F729
:1021B00080936C010E94400EBFCF819FC00111240B
:1021C00083599E4F0E94D30E8823E9F0E0916B0162
:1021D0001E9FF0011124E359FE4F4081518162811D
:1021E0007381848195810E94300E80916B0190E013
:1021F00001968770992780936B0180916B01909174
:102200006C018913DACF2C960FB6F894DEBF0FBE9F
:10221000CDBFDF91CF911F91089569857A858B8518
:102220009C850E94300E88CFEF92FF920F931F93F0
:10223000CF93DF938C01892B89F0F12CEE24E3946A
:10224000E8012196F8018491843709F457C0A0F47D
:10225000823009F43EC048F48130D1F0DF91CF9153
:102260001F910F91FF90EF9008959CEF980F90377A
:10227000A8F70E942C0A0AC0853709F44CC09CE7D5
:10228000980F903758F78F770E94080B8E0116C071
:102290000E5F1F4FFE01849190E2980F983060F41A
:1022A0008770FE2D01C0FF0F8A95EAF78F2F0E94DD
:1022B000C2140E94E91402C00E942C0A8F2D815082
:1022C00008F4BECFEFE9FFE03197F1F700C000005E
:1022D000F6CF0E5F1F4FFE01849190E2980F983069
:1022E00050F48770FE2D01C0FF0F8A95EAF78F2FFB
:1022F0000E94C814DECF0E94080BE0CF0E5F1F4F74
:10230000FE01C491C150D0F28FE99FE00197F1F72F
:1023100000C00000F7CF0E5F1F4FFE01F490CECF3C
:1023200008956093C0017093C1018093C20190939E
:10233000C3010C94DE0DCF93DF9300D000D0CDB756
:10234000DEB769837A838B839C838091C0019091EF
:10235000C101A091C201B091C30129813A814B8191
:102360005C81822B932BA42BB52B8093C00190937F
:10237000C101A093C201B093C3010F900F900F90C1
:102380000F90DF91CF910C94DE0DCF93DF9300D0AF
:1023900000D0CDB7DEB769837A838B839C8380912D
:1023A000C0019091C101A091C201B091C3012981E6
:1023B0003A814B815C8182239323A423B5238093AC
:1023C000C0019093C101A093C201B093C3010F90CB
:1023D0000F900F900F90DF91CF910C94DE0DCF9363
:1023E000DF9300D000D0CDB7DEB769837A838B83CB
:1023F0009C838091C0019091C101A091C201B091D4
:10240000C30129813A814B815C8182279327A427CC
:10241000B5278093C0019093C101A093C201B093EE
:10242000C3010F900F900F900F90DF91CF910C94FC
:10243000DE0D1092BC011092BD011092BE011092EF
:10244000BF010C94DE0D41E050E060E070E004C09C
:10245000440F551F661F771F8A95D2F74093BC0122
:102460005093BD016093BE017093BF010C94DE0DCB
:10247000282F81E090E0A0E0B0E004C0880F991F11
:10248000AA1FBB1F2A95D2F74091BC015091BD01F4
:102490006091BE017091BF01842B952BA62BB72BA9
:1024A0008093BC019093BD01A093BE01B093BF0186
:1024B0000C94DE0D41E050E060E070E004C0440F99
:1024C000551F661F771F8A95D2F7409550956095E6
:1024D00070958091BC019091BD01A091BE01B09119
:1024E000BF0184239523A623B7238093BC01909337
:1024F000BD01A093BE01B093BF010C94DE0D282F47
:1025000081E090E0A0E0B0E004C0880F991FAA1F0E
:10251000BB1F2A95D2F74091BC015091BD0160913B
:10252000BE017091BF0184279527A627B727809306
:10253000BC019093BD01A093BE01B093BF010C9468
:10254000DE0DCF93DF9300D000D0CDB7DEB7698327
:102550007A838B839C838091BC019091BD01A09173
:10256000BE01B091BF0129813A814B815C81822BF0
:10257000932BA42BB52B8093BC019093BD01A0930A
:10258000BE01B093BF010F900F900F900F90DF919D
:10259000CF910C94DE0DCF93DF9300D000D0CDB758
:1025A000DEB769837A838B839C838091BC01909191
:1025B000BD01A091BE01B091BF0129813A814B813B
:1025C0005C8182239323A423B5238093BC01909341
:1025D000BD01A093BE01B093BF010F900F900F906B
:1025E0000F90DF91CF910C94DE0DCF93DF9300D04D
:1025F00000D0CDB7DEB769837A838B839C838091CB
:10260000BC019091BD01A091BE01B091BF01298193
:102610003A814B815C8182279327A427B527809339
:10262000BC019093BD01A093BE01B093BF010F9078
:102630000F900F900F90DF91CF910C94DE0D0895C5
:10264000E82F2AE0929FE00D11248E2F877041E041
:1026500001C0440F8A95EAF7E695E695E69585E090
:10266000E89FF0011124ED55FE4F30E020E070E0CE
:102670005191DF011197CB01022E02C096958795EB
:102680000A94E2F7817081958527842385278C93AE
:102690002F5F3F4F2530310559F70895E82F2AE085
:1026A000929FE00D11249E2F9770E695E695E69592
:1026B00085E0E89FF0011124ED55FE4F50E040E029
:1026C00080E0219130E0092E02C0369527950A94CA
:1026D000E2F721703327042E01C0220F0A94EAF793
:1026E000822B4F5F5F4F4530510559F70895BF92D8
:1026F000CF92DF92EF92FF920F931F93CF93DF93CE
:102700008C01C090BC01D090BD01E090BE01F09062
:10271000BF018091C0019091C101A091C201B0910F
:10272000C301C82AD92AEA2AFB2ACFE1D0E0BC2E6D
:10273000D701C6010C2E04C0B695A795979587952D
:102740000A94D2F780FD0EC0219788F7B12C8B2D0B
:10275000DF91CF911F910F91FF90EF90DF90CF907D
:10276000BF900895B8018C2F0E946205019761F314
:10277000EECFCF93DF93D82FC92F0E9477136D2F01
:102780007C2FDF91CF910C9462051F93CF93DF9341
:10279000162FD72F90916A01992339F0862F972F02
:1027A000DF91CF911F910C94B913882391F0862F5C
:1027B000972F0E947713C82F682F812F9D2F0E947B
:1027C0002013612F7D2F8C2FDF91CF911F910C94BF
:1027D0006205862F972F0E944E13C82FF2CF80914B
:1027E000C40185958595859508958091C40187706C
:1027F000089598E0899F90011124622B6093C40191
:102800000C9438129091C401809589238093C4015F
:10281000282F277061F4282F082E000C330B9217F5
:10282000130629F08595859585950C945A1208957F
:102830009091C401977081E009F480E0089590912F
:1028400012019923E1F090911A0297FF18C0E82F26
:10285000E695E695E695EF3139F12091000130914A
:102860000101E20FF32FF11D877021E030E001C07C
:10287000220F8A95EAF78181822B81830895209126
:10288000000130910101F90132969FEF40E0519132
:10289000851751F09F3F19F4511101C0942F4F5FDC
:1028A0004E31A9F79F3F09F40895290F311D97FD77
:1028B0003A95F9018283089590911201992301F1CB
:1028C00090911A0297FF1CC0E82FE695E695E695D1
:1028D000EF3139F12091000130910101E20FF32F26
:1028E000F11D877021E030E0A90102C0440F551F9F
:1028F0008A95E2F7CA0180959181892381830895A1
:102900002091000130910101F9013296205E3F4F84
:102910009191891303C0DF0111971C92E217F3070D
:10292000B9F7089581E090E0E0910001F091010194
:10293000E80FF91F1082019680329105A9F70895DA
:102940009091E801982B9093E8010895982F909525
:102950008091E80189238093E80108951092E801AD
:1029600008959091E701982B9093E7010895982F8F
:1029700090958091E70189238093E7010895109253
:10298000E70108959091E601982B9093E601089550
:10299000982F90958091E60189238093E601089510
:1029A0001092E60108958093C50108951092C50123
:1029B00008952091000130910101F9013196205EC6
:1029C0003F4F80E0919191118F5FE217F307D1F7AC
:1029D0000895E0910001F09101018091E801808368
:1029E000E0910001F091010180819091E701892B34
:1029F0008083E0910001F091010180819091E601D6
:102A0000892B80839091C501992361F0E0910001A9
:102A1000F09101018081892B80830E94D91481115A
:102A20001092C50180910001909101010C9403095D
:102A30006DEE7EEF90E080E00E94902260E082E008
:102A400090E00E947E2260E083E090E00E947E227F
:102A500060E084E090E00E947E2260E085E090E00B
:102A60000C947E2290E080E00E9478229C0181E01C
:102A70002D3E3E4F09F080E0089582E090E00C94F6
:102A80007022682F82E090E00C947E2283E090E038
:102A90000C947022682F83E090E00C947E2284E0F6
:102AA00090E00C947022682F84E090E00C947E22D9
:102AB00080912002843039F11092EA0188E190E09F
:102AC00020E40FB6F894A895809360000FBE209381
:102AD000600080E00E94430583B7817F846083BFEC
:102AE00083B7816083BF7894889583B78E7F83BFD7
:102AF0000FB6F894A895809160008861809360007B
:102B0000109260000FBE089508950895CF930E941B
:102B100084150E9406080E948515C0E08C2F0E9433
:102B2000E808892B31F4CF5FC430C1F780E0CF9142
:102B3000089581E0FCCF0E94F20D0E94F7080C94EA
:102B400043051F921FB61F9211248F939F93AF933B
:102B5000BF938091EA01811113C080911602909178
:102B60001702A0911802B09119024196A11DB11D42
:102B70008093160290931702A0931802B093190243
:102B8000BF91AF919F918F911F901FBE1F9018957D
:102B900082E084BD93E095BD9AEF97BD80936E006F
:102BA00008952FB7F8948091160290911702A09182
:102BB0001802B09119022FBF0895CF92DF92EF92C1
:102BC000FF929C014FB7F8948091160290911702E2
:102BD000A0911802B09119024FBF6C017D01EE2443
:102BE000FF24A90170E060E0C416D506E606F706EA
:102BF00038F0821B930BFF90EF90DF90CF900895F9
:102C00000197F7CF1F921FB61F9211248F939F93A6
:102C1000AF93BF938091160290911702A091180272
:102C2000B09119020196A11DB11D809316029093D7
:102C30001702A0931802B0931902BF91AF919F9110
:102C40008F911F901FBE1F9018950E94191EF89417
:102C50002FEF87EA91E6215080409040E1F700C0D5
:102C6000000087E090EBDC018093290290932A0218
:102C7000A0932B02B0932C0288E19CE00FB6F8944D
:102C8000A895809360000FBE90936000FFCFAF9235
:102C9000BF92CF92DF92EF92FF920F931F93CF9349
:102CA000C0E0AA24A394B12CE82EF12C8C2F0E9412
:102CB000E8086C0110E000E0C501002E02C0880F9A
:102CC000991F0A94E2F78C219D21892B99F0602F9E
:102CD0007C2F80E00E944605E816F90659F481E051
:102CE000CF911F910F91FF90EF90DF90CF90BF9009
:102CF000AF9008950F5F1F4F0A301105E9F6CF5FBF
:102D0000C430A1F680E0ECCFCF93C82F8CE20E94B4
:102D10004716882321F08C2FCF910C94471680E022
:102D2000CF910895CF93DF9300D000D0CDB7DEB719
:102D30000E943215811102C00E94181595E69983F0
:102D400008C00E9406088FE39CE90197F1F700C0D4
:102D50000000A981A150A983A111F3CF89E20E94AB
:102D60008416811110C18AE20E94841681110E948A
:102D7000181585E00E94841681110E9425160E9474
:102D80003D158093E90187E00E948416882371F045
:102D90008BE10E948416882309F4D1C09091E90147
:102DA000892F8D7F91FF82608093E9018091E901F5
:102DB0000E9441150E944F1590E090931B02809352
:102DC0001A0280EE0E948416882341F090911A0224
:102DD000892F8E7F90FF816080931A0289E30E9481
:102DE0008416882341F090911A02892F8D7F91FFDC
:102DF000826080931A0282EE0E948416882341F03A
:102E000090911A02892F8B7F92FF846080931A021F
:102E100086EE0E948416882341F090911A02892F31
:102E2000877F93FF886080931A0283EE0E94841646
:102E3000882341F090911A02892F8F7E94FF806140
:102E400080931A0285E30E948416882341F09091B2
:102E50001A02892F8F7D95FF806280931A0281E389
:102E60000E948416882341F090911A02892F8F7B4B
:102E700096FF806480931A0281E10E948416882361
:102E800041F090911A02892F97FB87F9805880931F
:102E90001A0280911A020E94531587E20E9484163A
:102EA00089838EE10E948416882319F0B981B2606B
:102EB000B9838FE10E948416882319F02981246048
:102EC000298380E20E948416882319F039813860B2
:102ED000398381E20E948416882319F04981406178
:102EE000498382E20E948416882319F05981506236
:102EF000598383E20E948416882319F089818064B3
:102F0000898384E20E9484168823B1F199819068B4
:102F1000998389810E944A153981232F30E050E03E
:102F200040E029833A834B835C83CA01B9010F9047
:102F30000F900F900F90DF91CF910C9491118EE034
:102F40000E948416882339F09091E901892F8B7FA4
:102F500092FF846029CF80E10E9484169091E9015C
:102F6000882329F0892F877F93FF88601DCF892FC1
:102F70008E7F90FF816018CFA981A111CACF0E94D6
:102F80004615282FCBCF0F900F900F900F90DF9109
:102F9000CF9108958091ED0180FF12C060910501ED
:102FA00085E0689FB00111247595679575956795C3
:102FB00060387105A8F561157105A1F1862F089596
:102FC00081FF09C06091050185E0689FB00111246F
:102FD00075956795EDCF6091050182FD0AC08091DE
:102FE000EE018823D1F090910401609105018917C9
:102FF00028F085E0689FB0011124DACF869FB001E8
:10300000112485E0869F9001879F300D1124692F40
:1030100070E0C9010E944222CBCF65E070E0CECFC4
:103020008FE7089581E008958091ED0180FF0CC045
:103030006091030170E075956795759567956115C9
:10304000710549F1862F089581FF06C06091030143
:1030500070E075956795F3CF6091030182FD0BC019
:103060009091EE019923A1F06091020180910301FA
:10307000961738F0682F70E06038710500F38FE71D
:103080000895899FC001112470E00E944222F4CF6C
:1030900061E070E0D7CF81E00895803F31F40E9475
:1030A000CA1781958093F1010895813F19F40E9418
:1030B000CA17F8CF823F31F40E94CA1781958093D6
:1030C000F0010895833F19F40E94CA17F8CF893F91
:1030D00029F40E9414188093F20108958A3F21F484
:1030E0000E9414188195F7CF8B3F31F40E94141879
:1030F00081958093F30108958C3F19F40E94141870
:10310000F8CF843F31F48091EF0181608093EF012B
:103110000895853F21F48091EF018260F7CF863FCB
:1031200021F48091EF018460F1CF873F21F48091F9
:10313000EF018860EBCF883F21F48091EF0180613F
:10314000E5CF8D3F31F48091ED0181608093ED01F9
:1031500008958E3F21F48091ED018260F7CF8F3F7B
:10316000B9F78091ED018460F1CF9091F001803F3B
:1031700041F48091F10187FD1092F101992371F0E2
:103180000895813F29F48091F1011816ACF3F6CF30
:10319000823F81F497FFF2CF1092F0018091F1010C
:1031A0009091F201892B9091F301892B49F71092AC
:1031B000EE010895833F19F4191674F3DFCF893FA8
:1031C00039F48091F2011816CCF61092F201D6CFA4
:1031D0008A3F29F48091F20187FFD0CFF6CF8B3F51
:1031E00039F48091F30187FFC9CF1092F301C6CF64
:1031F0008C3F29F48091F3011816BCF3BFCF843FB4
:1032000031F48091EF018E7F8093EF01B7CF853F3E
:1032100021F48091EF018D7FF7CF863F21F48091DB
:10322000EF018B7FF1CF873F21F48091EF01877F02
:10323000EBCF883F21F48091EF018F7EE5CF8D3F6A
:1032400031F48091ED018E7F8093ED0197CF8E3F19
:1032500021F48091ED018D7FF7CF8F3F09F08ECF64
:103260008091ED018B7FF0CF8FEE91E00E940E09EF
:103270000E94D1159093EC018093EB0108951F9368
:10328000CF93DF9300D000D000D0CDB7DEB78091D0
:10329000EB019091EC010E94DD15AC018091EE01F3
:1032A0002091060130E0811106C0209107019AE0CB
:1032B000299F900111244217530788F02091F001B3
:1032C000A091F101A9831091F201B091F301BE83A5
:1032D00021110FC09A2F912B9B2B09F0B2C026967B
:1032E0000FB6F894DEBF0FBECDBFDF91CF911F9117
:1032F00008958F3F19F08F5F8093EE01121624F42A
:103300000E94CA178093F0018091F00187FF05C0E9
:103310000E94CA1781958093F0012981121624F426
:103320000E94CA178093F1018091F10187FF05C0C7
:103330000E94CA1781958093F1018091F001882342
:1033400009F455C03091F1013D83332309F44FC096
:10335000282F880F330B440B550B29833A834B835B
:103360005C83CA01B9010E94492123E333E343E3AB
:103370005FE369837A838B839C8369817A818B8104
:103380009C810E94AD2169837A838B839C836981B0
:103390007A818B819C810E9411216093F0018D8143
:1033A000082E000C990BAA0BBB0B89839A83AB8365
:1033B000BC83BC01CD010E94492123E333E343E3F5
:1033C0005FE369837A838B839C8369817A818B81B4
:1033D0009C810E94AD2169837A838B839C83698160
:1033E0007A818B819C810E9411216093F1011116D9
:1033F00024F40E9414188093F2018091F20187FF57
:1034000005C00E94141881958093F2019E811916BF
:1034100024F40E9414188093F3018091F30187FF34
:1034200005C00E94141881958093F30126960FB66B
:10343000F894DEBF0FBECDBFDF91CF911F910C94EA
:1034400034198F3F09F057CF68CF85E0EFEEF1E0F8
:10345000DF011D928A95E9F71092EE011092ED01BD
:103460000895809114020895CF93DF9300D00F92B6
:10347000CDB7DEB720912002243019F523E029834F
:103480008A839B832093E9008FEF9091E80081501D
:1034900095FD06C095ED9A95F1F700008111F5CFE5
:1034A0008091E80085FF0DC050E040E063E070E0EF
:1034B000CE0101960E94911C8091E8008E77809346
:1034C000E8000F900F900F90DF91CF910895CF9368
:1034D000DF9300D00F92CDB7DEB79C018091200220
:1034E000843031F582E08983205831093B832A8377
:1034F00083E08093E9008FEF9091E800815095FD83
:1035000006C095ED9A95F1F700008111F5CF8091F5
:10351000E80085FF0DC050E040E063E070E0CE01C0
:1035200001960E94911C8091E8008E778093E800BC
:103530000F900F900F90DF91CF910895209120026E
:103540002430F1F422E02093E9002FEF3091E800DD
:10355000215035FD06C035ED3A95F1F700002111F7
:10356000F5CF2091E80025FF0BC050E040E065E07A
:1035700070E00E94911C8091E8008E778093E800B3
:103580000895CF93DF93D82FC92F809120028430E4
:10359000F1F4909112019923E9F090911A0297FFAA
:1035A00019C08093E9008FEF9091E800815095FD5C
:1035B00006C095E19A95F1F700008111F5CF809151
:1035C000E80050E040E060E270E085FD1AC0DF9165
:1035D000CF91089581E08093E9008FEF9091E8000A
:1035E000815095FD06C095ED9A95F1F70000811187
:1035F000F5CF8091E80085FFEACF50E040E068E039
:1036000070E08D2F9C2F0E94911C8091E8008E7796
:103610008093E80080E2ED2FFC2FA4EFB1E0019051
:103620000D928A95E1F7D3CF80911F02811109C0D5
:103630000E94191E0E94761E8091E2008460809391
:10364000E200089510921F020895089508950C94C1
:103650009B1542E061EC81E00E94951D42E061EC27
:1036600082E00E94951D42E061EC83E00E94951D7E
:1036700042E261EC84E00C94951D80912202893035
:1036800089F148F4823009F494C0833009F44FC0C2
:10369000813041F008958A3009F47BC08B3009F401
:1036A00061C0089580912102813A09F03FC0809164
:1036B000E800877F8093E8008091250290912602A0
:1036C000892B61F460E284EF91E070E00E94E01CDD
:1036D0008091E8008B778093E800089560E090E0A7
:1036E00080E0F3CF80912102813201F580912502A3
:1036F00090912602009711F00397C1F48091E800A1
:10370000877F8093E8008091E80082FF0BC0809162
:10371000F100809314028091E8008B778093E80099
:103720000C94C91D809120028111EDCF08958091E4
:103730002102813AD9F78091250290912602892BA6
:10374000A9F78091E800877F8093E8008091E800E6
:1037500080FFFCCF809112018093F1008091E800FE
:103760008E77DCCF80912102813201F78091250292
:1037700090912602892BD1F68091E800877F809373
:10378000E8000E94C91D80912302809312010C94CD
:10379000F20D80912102813249F68091E800877F05
:1037A0008093E8000E94C91D809124028093150235
:1037B000089580912102813A09F0B8CF8091E80004
:1037C000877F8093E8008091E80080FFFCCF8091A4
:1037D0001502C2CF84B7877F84BF0FB6F894A8952F
:1037E00080916000886180936000109260000FBE3D
:1037F00080E880936100109261000E9446090E9457
:10380000191E0E94761E8091E20084608093E2007F
:1038100078940E94F6200E94480988E091E00E9476
:10382000F20880912002853019F00E944E09F9CFEC
:103830000E94581580911E02882399F30E948615D4
:10384000882379F30E947B1CECCF9C01DA01892F3D
:10385000992783309105C1F068F48130910509F40E
:1038600045C0029761F48DE690E02CED35E02D9394
:103870003C93089581329105E1F0829739F190E00F
:1038800080E030E020E0F3CFC9019927213059F0E2
:103890008230910559F0E8EDF5E0892B81F78491AC
:1038A00090E09F01E4CFE0ECF5E0F9CFECEAF5E041
:1038B000F6CF643020F7E62FF0E0EE0FFF1FE35D58
:1038C000FE4F2081318189E090E0D1CF6430B8F69D
:1038D00070E0FB01EE0FFF1FEB5DFE4F2081318199
:1038E0006F5D7E4FFB01808190E0C1CF82E190E06F
:1038F00029E436E0BCCF80E189BD82E189BD09B40D
:1039000000FEFDCF8091D8008F7D8093D8008091FC
:10391000E00082608093E0008091E00081FDFCCFB8
:103920000895AF92BF92CF92DF92FF920F931F93B1
:10393000CF93DF936C01EB018A010E94E81DF82E02
:10394000811123C00115110539F0F80180819181A1
:10395000C81BD90BC80ED91EB12CA12C2097A9F0D9
:103960008091E80085FD22C08091E8008E778093E9
:10397000E80001151105A1F0F80180819181A80EE0
:10398000B91EB182A08285E0F82E8F2DDF91CF91F4
:103990001F910F91FF90DF90CF90BF90AF9008954F
:1039A0000E94E81D8823D1F2F82EEFCFF601819115
:1039B0006F018093F1002197FFEFAF1ABF0ACECFBE
:1039C000FC01CB01209127023091280226173707EE
:1039D00090F0009729F42091E8002E772093E800DA
:1039E00040E0009751F4411108C08091E80082FF47
:1039F00031C080E00895C901F3CF20912002222335
:103A0000A9F12530A9F12091E80023FD2DC02091D6
:103A1000E80022FDEACF2091E80020FFE2CF3091BC
:103A2000F3002091F200009719F02830310558F08A
:103A300041E02830310509F040E02091E8002E7780
:103A40002093E800CECF41914093F10001972F5F82
:103A50003F4FE9CF80912002882341F0853041F02B
:103A60008091E80083FFC1CF81E0089582E008954E
:103A700083E00895FC01CB012091270230912802B8
:103A80002617370790F0009729F42091E8002E7749
:103A90002093E80040E0009751F4411108C0809164
:103AA000E80082FF32C080E00895C901F3CF209181
:103AB00020022223B1F12530B1F12091E80023FD4D
:103AC0002EC02091E80022FDEACF2091E80020FFDF
:103AD000E2CF3091F3002091F200009719F02830E6
:103AE000310558F041E02830310509F040E02091DF
:103AF000E8002E772093E800CECF44914093F10068
:103B0000319601972F5F3F4FE8CF809120028823A5
:103B100041F0853041F08091E80083FFC0CF81E023
:103B2000089582E0089583E00895982F973028F053
:103B30008F708093E90081E008959093E900242F2D
:103B4000762F50E0981731F07091EC002091ED0045
:103B50005091F00021FD02C09F5FE8CF3091EB0053
:103B60003E7F3093EB003091ED003D7F3093ED00D0
:103B70003091EB0031603093EB007093EC002093B8
:103B8000ED005093F0002091EE0027FDE5CF80E09E
:103B900008958091210287FF13C08091E80082FF81
:103BA00006C08091E8008B778093E80004C0809184
:103BB00020028111F2CF0895809120028823D9F349
:103BC0008091E80080FFF8CF8091E8008E77ECCFFD
:103BD0002091E4003091E50095E6A9012091EC00E8
:103BE000822F817020FF06C08091E80080FF06C010
:103BF00080E008952091E80022FD1AC08091200203
:103C0000882389F0853089F08091EB0085FD0FC015
:103C10002091E4003091E50042175307F9F29150EA
:103C2000E1F684E0089582E0089583E0089581E05C
:103C300008950E94871E0E948F1EE0EEF0E08081B2
:103C400081608083E8EDF0E080818F77808319BC0C
:103C5000A7EDB0E08C918E7F8C9380818F7E8083E6
:103C600010921F0208950F931F93CF93DF930E942A
:103C7000871E0E948F1EC8EDD0E088818F778883D1
:103C800088818068888388818F7D888319BC1092A1
:103C9000200210921C0210921E0210921D0200EED1
:103CA00010E0F80180818B7F808388818160888328
:103CB00042E060E080E00E94951DE1EEF0E080814E
:103CC0008E7F8083E2EEF0E080818160808380815E
:103CD00088608083F80180818E7F80838881806105
:103CE0008883DF91CF911F910F910895E8EDF0E067
:103CF00080818F7E8083E7EDF0E08081816080832A
:103D000084E082BF81E080931F020C94331EE8EDB3
:103D1000F0E080818E7F80831092E20008951092FF
:103D2000DA001092E10008951F920F920FB60F92E1
:103D300011242F933F934F935F936F937F938F93B0
:103D40009F93AF93BF93EF93FF938091E10082FF26
:103D50000BC08091E20082FF07C08091E1008B7F61
:103D60008093E1000E94F5208091DA0080FF19C065
:103D70008091D80080FF15C08091DA008E7F8093FB
:103D8000DA008091D90080FF94C080E189BD82E192
:103D900089BD09B400FEFDCF81E0809320020E941E
:103DA000141B8091E10080FF19C08091E20080FF28
:103DB00015C08091E2008E7F8093E2008091E20046
:103DC00080618093E2008091D80080628093D80067
:103DD00019BC85E0809320020E94261B8091E1009F
:103DE00084FF29C08091E20084FF25C080E189BD65
:103DF00082E189BD09B400FEFDCF8091D8008F7D9E
:103E00008093D8008091E1008F7E8093E1008091C3
:103E1000E2008F7E8093E2008091E20081608093D7
:103E2000E20080911C02882309F449C084E0809359
:103E300020020E94271B8091E10083FF29C080910E
:103E4000E20083FF25C08091E100877F8093E1003D
:103E500082E08093200210921C028091E1008E7F0C
:103E60008093E1008091E2008E7F8093E200809158
:103E7000E20080618093E20042E060E080E00E9426
:103E8000951D8091F00088608093F0000E94251BB2
:103E9000FF91EF91BF91AF919F918F917F916F9122
:103EA0005F914F913F912F910F900FBE0F901F90F8
:103EB000189519BC109220020E94221B72CF80918B
:103EC000E30087FD02C081E0B2CF83E0B0CF1F9254
:103ED0000F920FB60F9211242F933F934F935F933E
:103EE0006F937F938F939F93AF93BF93CF93DF9302
:103EF000EF93FF93D091E900DF708091EC00C82F21
:103F0000C17080FDC0E81092E9008091F000877FC9
:103F10008093F00078940E94AB1F1092E90080918A
:103F2000F00088608093F000CD2BCF70C093E90043
:103F3000FF91EF91DF91CF91BF91AF919F918F91C1
:103F40007F916F915F914F913F912F910F900FBE95
:103F50000F901F9018951F93CF93DF93CDB7DEB7C7
:103F6000AA970FB6F894DEBF0FBECDBF81E292E0F4
:103F7000FC0101962091F100208322E08932920712
:103F8000B9F70E943D1B8091E80083FF16C1809124
:103F90002102909122029A3008F00FC1E92FF0E03F
:103FA000E653FD4D0C945622803881F0823809F09A
:103FB00004C1809125028F708093E9008091EB000D
:103FC00085FB882780F91092E90006C080911D02C8
:103FD00090911E02911182609091E800977F9093DA
:103FE000E8008093F1001092F1008091E8008E7754
:103FF000E0C0882309F4CEC0823009F0DEC0809191
:1040000023028111D1C0809125028F7009F4D5C09F
:104010008093E9002091EB0020FFC6C0933031F47B
:104020008091EB0080628093EB00BEC09091EB002A
:1040300090619093EB0021E030E001C0220F8A955F
:10404000EAF72093EA001092EA008091EB00886082
:10405000EACF8111B2C0109123021F778091E30053
:104060008078812B8093E3008091E800877F8093A4
:10407000E8000E94C91D8091E80080FFFCCF80917C
:10408000E30080688093E30082E0111183E0809375
:10409000200293C08058823008F08FC080912302A4
:1040A000909124028C3D23E09207A1F583E08A835E
:1040B0008AE289834FB7F894DE01139620E03EE050
:1040C00051E2E32FF0E050935700E49120FF03C04A
:1040D000E295EF703F5FEF708E2F90E0EA30C0F016
:1040E000C7968D939D932F5F243159F74FBF8091D1
:1040F000E800877F8093E8006AE270E0CE010196D5
:104100000E94E01C8091E8008B778093E80055C006
:10411000C096E7CFAE014F5F5F4F609125020E94CE
:10412000251CBC01892B09F448C08091E800877FD9
:104130008093E80089819A810E943A1DE3CF8038FC
:10414000E1F58091E800877F8093E80080911C0270
:104150008093F1004ACF811130C0909123029230B8
:1041600060F58091E800877F8093E80090931C02BF
:104170000E94C91D80911C02882311F084E005C0B3
:104180008091E30087FDFACF81E0809320020E94B6
:10419000291B13C080912302813079F481E0933090
:1041A00009F080E080931E021092E9008091E800FF
:1041B000877F8093E8000E94C91D8091E80083FFFB
:1041C0000AC08091E800877F8093E8008091EB002F
:1041D00080628093EB00AA960FB6F894DEBF0FBE04
:1041E000CDBFDF91CF911F9108950895CF93809116
:1041F00020028823A1F0C091E900CF709091EC00DB
:10420000892F817090FD80E8C82B1092E900809181
:10421000E80083FD0E94AB1FCF70C093E900CF91EF
:1042200008950E9418216894B1110C94A721089553
:104230000E948C2188F09F5798F0B92F9927B75189
:10424000B0F0E1F0660F771F881F991F1AF0BA953A
:10425000C9F714C0B13091F00E94A621B1E00895D1
:104260000C94A621672F782F8827B85F39F0B93FC3
:10427000CCF3869577956795B395D9F73EF49095ED
:104280008095709561957F4F8F4F9F4F0895E8946B
:1042900009C097FB3EF490958095709561957F4F8E
:1042A0008F4F9F4F9923A9F0F92F96E9BB2793953C
:1042B000F695879577956795B795F111F8CFFAF44C
:1042C000BB0F11F460FF1BC06F5F7F4F8F4F9F4F7D
:1042D00016C0882311F096E911C0772321F09EE8DB
:1042E000872F762F05C0662371F096E8862F70E041
:1042F00060E02AF09A95660F771F881FDAF7880F1B
:104300009695879597F9089557FD9058440F551F36
:1043100059F05F3F71F04795880F97FB991F61F047
:104320009F3F79F087950895121613061406551FBE
:10433000F2CF4695F1DF08C0161617061806991F2A
:10434000F1CF86957105610508940895E894BB271F
:1043500066277727CB0197F908950E94C0210C9416
:1043600031220E94232238F00E942A2220F0952335
:1043700011F00C941A220C94202211240C94A721E1
:104380000E94842170F3959FC1F3950F50E0551F53
:10439000629FF001729FBB27F00DB11D639FAA279A
:1043A000F00DB11DAA1F649F6627B00DA11D661FE9
:1043B000829F2227B00DA11D621F739FB00DA11D0A
:1043C000621F839FA00D611D221F749F3327A00DC4
:1043D000611D231F849F600D211D822F762F6A2F60
:1043E00011249F5750409AF0F1F088234AF0EE0FC5
:1043F000FF1FBB1F661F771F881F91505040A9F7F2
:104400009E3F510580F00C941A220C94A7215F3F27
:10441000E4F3983ED4F3869577956795B795F7952D
:10442000E7959F5FC1F7FE2B880F911D96958795A5
:1044300097F9089597F99F6780E870E060E0089524
:104440009FEF80EC089500240A94161617061806AC
:104450000906089500240A94121613061406050688
:104460000895092E0394000C11F4882352F0BB0F19
:1044700040F4BF2B11F460FF04C06F5F7F4F8F4F7C
:104480009F4F089597FB072E16F4009407D077FDF1
:1044900009D00E945C2207FC05D03EF490958195DE
:1044A0009F4F0895709561957F4F0895EE0FFF1F00
:1044B0000590F491E02D0994AA1BBB1B51E107C0A4
:1044C000AA1FBB1FA617B70710F0A61BB70B881FA4
:1044D000991F5A95A9F780959095BC01CD01089533
:1044E000F999FECF92BD81BDF89A992780B50895BC
:1044F000A8E1B0E042E050E00C949822262FF99910
:10450000FECF92BD81BDF89A019700B4021639F032
:104510001FBA20BD0FB6F894FA9AF99A0FBE089503
:104520000196272F0E947F220C947E22DC01CB0172
:10453000FC01F999FECF06C0F2BDE1BDF89A3196B3
:1045400000B40D9241505040B8F70895F894FFCF51
:10455000AE04BA04BE04C204C604CA04CE04D20423
:10456000D604DA04DE04E204E604EA04EE04F2040B
:10457000F604FA049D0B9D0BF50BF50B390C550C4D
:10458000CD0BCD0B600CCD0B280D280D930DCD0B55
:10459000CD0B9C0DD41FF91FDD20F91FDD20292034
:0845A0004A20DD209F20AB2022
:1045A800C6012808140A321E311AC11A9E1A671A3F
:1045B800341A019766949091F4F5F6F731C63435BC
:1045C80032404D36391707CA0694065B06EE0507D2
:0645D80006200639060072
:00000001FF
